:020000040800F2
:100000008806002075010008C90F0008DD0E0008F1
:1000100000000000000000000000000000000000E0
:10002000000000000000000000000000CD0F0008EC
:100030000000000000000000CB0F0008CF0F0008F8
:100040008701000887010008870100088701000870
:100050008701000887010008870100088701000860
:100060008701000887010008870100088701000850
:100070008701000887010008870100088701000840
:100080008701000887010008870100088701000830
:100090008701000887010008870100088701000820
:1000A0008701000887010008870100088701000810
:1000B0008701000887010008870100088701000800
:1000C00000F002F800F046F80CA030C808382418F8
:1000D0002D18A246671EAB4654465D46AC4201D180
:1000E00000F038F87E460F3E0FCCB646012633426C
:1000F00000D0FB1AA246AB46334318479C120000BF
:10010000BC120000103A02D378C878C1FAD852075E
:1001100001D330C830C101D504680C6070470000BD
:100120000023002400250026103A01D378C1FBD813
:10013000520700D330C100D50B60704710B5642959
:1001400002D100F0FFF810BD002010BD1FB51FBD8B
:1001500010B510BD00F085FA1146FFF7F7FF01F06A
:10016000D9F800F09DFA03B4FFF7F2FF03BC00F0EA
:10017000A3FA00000748804707480047FEE7FEE76C
:10018000FEE7FEE7FEE7FEE704480549054A064BA1
:100190007047000015100008C1000008880000200A
:1001A000880600208802002088020020FEB505464F
:1001B00010460C46184373D0AE468C460020AD1A4C
:1001C00001469C4167D36646002701243D46B61A86
:1001D0009D4102D313463A462124654676462F04B4
:1001E000360C3E432D0CB61A9D4104D3150C1B044E
:1001F0002B4312041034654676462F06360A3E43DA
:100200002D0AB61A9D4104D3150E1B022B43120270
:100210000834654676462F0736093E432D09B61A3F
:100220009D4104D3150F1B012B431201241D65466C
:100230007646AF07B6083E43AD08B61A9D4104D3D3
:10024000950F9B002B439200A41C65467646EF0752
:1002500076083E436D08B61A9D411AD392185B4149
:10026000641C16E00018764665464941B71A9D4160
:100270000191009009D36046B11A98418E46844698
:10028000009801990025401C6941DD0752082A4366
:100290005B08641EE6D57246634603B0F0BDFFE717
:1002A00000200146C046C0462A462346F5E7000026
:1002B0000FB41CB5074B06AA7B446946009005980D
:1002C00000F0A3F90020694600F0B2F91CBC08BC9C
:1002D00004B0184775030000F8B50E460446002028
:1002E00020622046E1688847002829D0252802D0CE
:1002F0006268A16820E0E168204600278847050081
:100300001ED028464138192802D80127FF0220357F
:100310003246204627602946FFF710FF002808D004
:10032000012804D0F61DF608F6000836D9E7361D78
:10033000D7E762682846A1689047206A401CCFE74B
:10034000206AF8BDF7B5002575291068009914A634
:1003500011D0C046C046002802DA404211A608E08B
:10036000009909688A0701D50FA602E0490704D55C
:100370000EA6012501E0C046C046009F0024243798
:1003800004E000F05AF930313955641C0028F8D1E6
:100390002B4632462146009800F0DAF8FEBD0000F8
:1003A000000000002D0000002B00000020000000D5
:1003B00001E004C0091F0429FBD28B0701D502808C
:1003C000801CC90700D00270704700290BD0C307FA
:1003D00002D00270401C491E022904D3830702D5B3
:1003E0000280801C891EE3E70022EEE70022DFE79F
:1003F000002203098B422CD3030A8B4211D3002322
:100400009C464EE003460B433CD4002243088B42FB
:1004100031D303098B421CD3030A8B4201D3944688
:100420003FE0C3098B4201D3CB01C01A524183097B
:100430008B4201D38B01C01A524143098B4201D335
:100440004B01C01A524103098B4201D30B01C01A60
:100450005241C3088B4201D3CB00C01A52418308DA
:100460008B4201D38B00C01A524143088B4201D307
:100470004B00C01A5241411A00D201465241104667
:1004800070475DE0CA0F00D04942031000D34042DC
:10049000534000229C4603098B422DD3030A8B4212
:1004A00012D3FC22890112BA030A8B420CD38901B0
:1004B00092118B4208D3890192118B4204D3890196
:1004C0003AD0921100E08909C3098B4201D3CB01D4
:1004D000C01A524183098B4201D38B01C01A524189
:1004E00043098B4201D34B01C01A524103098B428D
:1004F00001D30B01C01A5241C3088B4201D3CB0078
:10050000C01A524183088B4201D38B00C01A52415A
:10051000D9D243088B4201D34B00C01A5241411A31
:1005200000D20146634652415B10104601D340425F
:10053000002B00D54942704763465B1000D3404210
:1005400001B50020C046C04602BD704770477047E5
:10055000FFB504460D4681B024300090216888061E
:1005600004D51022E0699143216000E00120A842F7
:1005700001DD471B00E000270498A1697A191018D3
:10058000081AA0612078C00602D42046C046C046A2
:10059000002608E003986268A168805D9047206AA1
:1005A000401C761C206204988642F3DB2078C0064B
:1005B0000AD52046C046C04606E06268A1683020E1
:1005C0009047206A401C206238467F1E0028F4DCD9
:1005D00007E000986268A168405D9047206A401C6F
:1005E000206228466D1E0028F3DC2046C046C04627
:1005F0002078000602D5022005B0F0BD0120FBE7FF
:1006000001694A1C02610878704700B58FB00291F9
:100610000021059105490193794403911146049005
:100620006846FFF759FE0FB000BD0000E5FFFFFF71
:100630000A681070521C0A60704701468008081A48
:1006400002091018020A1018020C1018C0088200C3
:1006500012185200891A01E0401C0A390A29FBD2FB
:100660007047754600F024F8AE46050069465346CB
:10067000C008C000854618B020B5FFF785FD60BCF6
:1006800000274908B6460026C0C5C0C5C0C5C0C5BC
:10069000C0C5C0C5C0C5C0C5403D49008D467047F6
:1006A00010B50446C046C0462046FFF75CFD10BDAD
:1006B000004870472400002001491820ABBEFEE727
:1006C000260002007047000070B5044600F0C0F834
:1006D0000546601C02D004480078241800F0B8F8E1
:1006E000401BA042FAD370BD04000020F8B50023DF
:1006F00093E0224601249C40A44622407ED04C68D0
:10070000022C01D0122C0CD1DC08A40027183C6A62
:100710005D07ED0E0F26AE40B4430E69AE40264392
:100720003E6205685E000324B4400F79A543BF070D
:10073000BF0FB7402F4307604D68012D05D0022D34
:1007400003D0112D01D0122D0ED18568CF68A5439D
:10075000B7402F43876047686546AF430D79ED0684
:10076000ED0F9D403D434560C568A5438C68B4408E
:100770002C43C4604C68E4004ED52B4CA56901267F
:100780003543A561A4699D0834400094274CAD0011
:100790002F19BC689D072E0F0F25B540AC430925C6
:1007A000ED06A84201D1002514E0214DA84201D157
:1007B00001250FE01F4DA84201D102250AE01E4D80
:1007C000A84201D1032505E01C4DA84201D1042512
:1007D00000E00525B5402543BD60194C25684E68ED
:1007E0009543F60300D51543256065684E6895432B
:1007F000B60300D515436560A56800E00CE04E68BF
:100800009543F60200D51543A560E5684E6895430B
:10081000B60200D51543E5605B1C0A681446DA4051
:1008200000D066E7F8BD0000001002400000014063
:100830000004004800080048000C00480010004870
:1008400000040140002A01D0816170478162704735
:100850000148806870470000040000200248816859
:1008600002788918816070470400002010B506489E
:100870000168102211430160002000F007F800F029
:1008800027F8002010BD00000020024070B504468B
:100890000D4D7D202978C000FFF7AAFD01460B48C9
:1008A0000068FFF7A5FD00F001FB002809D1042C2A
:1008B00007D200222146401E00F01EF800206C6086
:1008C00070BD012070BD0000040000201000002059
:1008D00008B508488169012211438161816911408D
:1008E0000091C26901040A43C261C06908400090D6
:1008F00008BD00000010024010B500F0A5FB10BDBF
:10090000F8B50F4606005FD03D4D2868C007C00F00
:10091000B84209D228684008400038432860286857
:10092000C007C00FB8424FD13068364C81070CD594
:10093000400704D5606807210902084360606068C9
:10094000F0218843B168084360603078C0072CD03C
:100950007068012810D0022811D0032812D0216815
:100960008907002930DA61688908890001436160DC
:10097000FFF76EFF009011E021688903F1E721681D
:100980008901EEE7616BC903EBE7FFF761FF0099AF
:10099000411A1D48814201D90320F8BD60680C212D
:1009A0000840716889008842EFD12868C007C00FED
:1009B000B8420BD9286840084000384328602868AE
:1009C000C007C00FB84201D00120F8BD3078400701
:1009D00006D56068072109028843F1680843606012
:1009E00000F018F86168094A0906090F515CC8400F
:1009F000074908600020FFF749FF0020F8BD00000C
:100A000000200240001002408813000088130008F4
:100A10001000002030B519A30FCB89B06C460FC46D
:100A20001AA30FCB0FC41D4A51680C200B4603407C
:100A30001B48042B05D01B4D082B04D00C2B00D1D8
:100A4000284609B030BD8B021B0F6C46E45CD26AAD
:100A500004AB1207120FC9039A5C890F022901D057
:100A6000032901D0002301E0002328460021FFF7DD
:100A70009DFB214600F0CFFAE3E7000002030405E6
:100A8000060708090A0B0C0D0E0F101001020304D3
:100A900005060708090A0B0C0D0E0F100010024086
:100AA00000127A00006CDC02FEB5040070D02078E1
:100AB000F94EFA4DC00748D068680007800F01283A
:100AC0001FD068680007800F022804D16868C0033F
:100AD000800F022815D06168012919D001208004F7
:100AE000002901D0052917D02968B1432960296858
:100AF00081432960606800281BD0FFF7A9FE0746E4
:100B000013E02868800320D560680028CED01CE060
:100B1000286830432860EDE7296801432960F7E73A
:100B2000FFF796FEC01B642870D828688003F7D5AD
:100B30000BE0FFF78DFE074604E0FFF789FEC01BC0
:100B40006428F1D828688003F7D4207880073FD53F
:100B500068680007800F14D068680007800F0228BB
:100B600004D16868C003800F01280AD0E06800281B
:100B700028681ED0012108432860FFF769FE074658
:100B80000CE0286880070CD5E068012800D108E057
:100B900080E1FFF75DFEC01B0228C5D828688007EA
:100BA000F7D52868F82188432169C90008432860DF
:100BB0000EE0400840002860FFF74AFE074604E0C8
:100BC000FFF746FEC01B0228AED828688007F7D47E
:100BD0002078000723D5E0690028686A0FD001213A
:100BE00008436862FFF734FE074604E0FFF730FE73
:100BF000C01B022898D8686A8007F7D50FE0400824
:100C000040006862FFF724FE074605E0C3E0FFF7F7
:100C10001FFEC01B022887D8686A8007F7D4207897
:100C200004274007002861DA00200190E869C0002D
:100C300008D4E969B8060143E961E9690140012086
:100C40000091019096480168C90511D40168821588
:100C500011430160FFF7FCFD009005E0FFF7F8FD90
:100C60000099401A642898D88D480068C005F5D5C9
:100C7000A06801280AD0002801D0052811D0286AD0
:100C8000400840002862286AB84302E0286A01212F
:100C900008432862A068002812D0FFF7D9FD009011
:100CA0000AE0286A38432862F0E7FFF7D1FD00998F
:100CB000411A7C4881426ED8286A8007F5D50DE03C
:100CC000FFF7C6FD009006E0FFF7C2FD0099411A4C
:100CD000744881425FD8286A8007F5D401980028BB
:100CE00004D0E969012000078143E9612078C0064A
:100CF00035D5606901280CD0401D686B24D038437D
:100D00006863686B400840006863FFF7A1FD074611
:100D100022E0686B38436863686B012108436863AD
:100D2000FFF796FD074604E0FFF792FDC01B02287F
:100D300031D8686B8007F7D5686BF8218843A169C3
:100D4000C900084368630AE0B8436863F4E7FFF743
:100D50007FFDC01B02281ED8686B8007F7D420785F
:100D6000800637D568680007800F032814D06868AC
:100D70000007800F022804D16868C003800F032891
:100D80000AD0206A0028686B16D030436863FFF7EA
:100D90005FFD06460CE062E0686BC0031AD5206A6E
:100DA000012877D116E0FFF753FD801B022856D8A3
:100DB000686BC003F7D50DE0B0436863FFF748FDEB
:100DC000064604E0FFF744FD801B022847D8686B05
:100DD000C003F7D4606A002866D069680907890FE4
:100DE000022942D0012636060228286805D0B043E1
:100DF0002860FFF72DFD044633E0B0432860FFF77D
:100E000027FD074604E0FFF723FDC01B022826D874
:100E100028688001F7D4E86A216B000900010843C3
:100E2000E862A16AE06A084369687B22D2039143C1
:100E300008436860286830432860FFF709FD0446CE
:100E400004E0FFF705FD001B022808D82868800190
:100E5000F7D529E0FFF7FCFC001B022801D903208D
:100E6000FEBD28688001F5D41EE00128F8D068682E
:100E7000E96A0322D203A36A02409A420AD109070F
:100E8000226B090F914205D10F2189040840E16AC4
:100E9000884209D00120FEBD000001000010024080
:100EA00000700040881300000020F4E7094910B5E5
:100EB000401E884201D9012010BD074C606103210A
:100EC000081F00F0C1F80020A06107202061002069
:100ED00010BD0000FFFFFF0000E000E0FEE70000A3
:100EE000F0B587B014216846FFF780FA32484269AE
:100EF0000121C9040A43426142690A4005924269DC
:100F0000C9000A43426142690A4005924269491197
:100F10000A43426142690A400592426949000A4314
:100F20004261406919260840059076010920002297
:100F30003146C006FFF786FC43273F0100223946B1
:100F40001E48FFF77FFC002280211D48FFF77AFC36
:100F50000120400300901B48002401906946029440
:100F60001748FFF7C3FB0C200090022001900125D9
:100F700009200294694604950394C006FFF7B6FB66
:100F8000092002946946C006009601950394FFF774
:100F9000ADFB029469460948009701950394FFF759
:100FA000A5FB8020009002946946019503940448B3
:100FB000FFF79CFB07B0F0BD0010024000040048A2
:100FC000000800480000211070477047704710B5B6
:100FD000FFF744FC10BD10B592B034216846FFF70E
:100FE00005FA00240F94202000900D9401200E9407
:100FF0000890109409946846FFF756FD07200D905D
:1010000003200E900F94012110940DA8FFF778FC97
:1010100012B010BD7047F8B5040C8BB2264682B2F0
:101020005E430D0C1046370C5843360480190021DE
:10103000794116466E43370C3604801979412646AD
:101040006E438919F8BD00008307FF22DB0E9A402A
:101050008907090E9940002808DB830809489B008E
:101060001B18186890430843186070470007000F6A
:101070000838830804489B001B18D869904308432C
:10108000D861704700E400E000ED00E0F0B509220F
:101090000446D20650690121490208435061324B8F
:1010A00080279F62314920268E6210258D62A8011B
:1010B00088628010906200F0D3F858693843586114
:1010C000E00601D58E6102E0012040058861A0069E
:1010D00001D58D6102E0012000058861600602D51E
:1010E0000120800201E0012080068861E00902D031
:1010F000FF20013001E001200006906100F0B0F80F
:101100009F62202088621020886285018D6206011E
:10111000966200F0A5F8586938435861E00701D09D
:10112000202001E0012040058861A00701D51020A2
:1011300001E0012000058861600701D58D6102E0B2
:10114000012080068861200701D5966102E0012018
:101150000006906100F084F89F62202088621020D1
:1011600088628D629662F0BD000800480004004865
:1011700010B5012000F004F80520FFF7A5FA10BD16
:10118000F0B50446012040020922D2069062324B9B
:1011900080279F62314920268E6210258D62400093
:1011A00088628010906200F05BF85869384358619B
:1011B000E00601D58E6102E0012040058861A006AD
:1011C00001D58D6102E0012000058861600602D52D
:1011D0000120800201E0012080068861E00902D040
:1011E000FF20013001E001200006906100F038F896
:1011F0009F62202088621020886285018D6206012E
:10120000966200F02DF8586938435861E00701D024
:10121000202001E0012040058861A00701D51020B1
:1012200001E0012000058861600701D58D6102E0C1
:10123000012080068861200701D5966102E0012027
:101240000006906100F00CF89F6220208862102058
:1012500088628D629662F0BD000800480004004874
:10126000C820401EFDD1704710B5012802D00228C9
:1012700002D005E07F3100E0BF31C8B2FFF780FF48
:101280000520FFF721FA10BD70B5064614460D463D
:10129000FA20FFF719FA0220FFF772FF3220FFF75A
:1012A00013FA2E43264320203043FFF769FF3220F4
:1012B000FFF70AFA0620FFF763FF3220FFF704FA70
:1012C0000E20FFF75DFF3220FFF7FEF90C20FFF73D
:1012D00057FF3220FFF7F8F90120FFF751FF642094
:1012E000FFF7F2F970BD10B5044604E0641CFFF787
:1012F000CDFEFFF7B5FF20780028F7D110BD10B55F
:101300001446FFF7B1FF2046FFF7EDFF0520FFF77A
:10131000DBF910BDFFF7AAFAFFF75DFEFFF7E0FD6E
:10132000002108220846FFF7AFFF01210DA2084661
:10133000FFF7E5FF7D25ED002846FFF7C5F9FFF72C
:1013400017FF0B4C0BA122680E48521C2260FEF7BF
:10135000AFFF01210B4A0846FFF7D1FF2846FFF7F0
:10136000B3F9EFE748656C6C6F20576F726C6400DF
:1013700000000020436F756E746572203D20256467
:101380002000000014000020000000000000000009
:101390000102030406070809B81300080000002032
:1013A0001400000004010008CC1300081400002001
:1013B0007406000020010008000000000100000089
:0C13C000040000000000000000127A0091
:04000005080000C12E
:00000001FF
